{
  "transactions": [
    {
      "hash": "0xc1ce840a690a2938f74be1d55aa82db25ebca8d7a20ad8d558de95ea7152fb4f",
      "transactionType": "CALL",
      "contractName": "SolBeats",
      "contractAddress": "0x4a55CBAc33cfF6149510D498E2B1D314678688e7",
      "function": "mint(bytes,string)",
      "arguments": [
        "0x608060405234801561001057600080fd5b50610280806100206000396000f3fe608060405234801561001057600080fd5b506004361061004c5760003560e01c80632e6636521461005157806360b0d83314610073578063655d2c2714610089578063ce665dd814610092575b600080fd5b61005961009a565b60405163ffffffff90911681526020015b60405180910390f35b61007b6100aa565b60405161006a92919061018d565b610059611f4081565b610059600081565b6100a7611f40601e6101e8565b81565b60606000806100bc611f40601e6101e8565b63ffffffff1667ffffffffffffffff8111156100da576100da61021e565b6040519080825280601f01601f191660200182016040528015610104576020820181803683370190505b50905060005b6203a980811015610182578151600282811c600e84901c82166005018402909102600884901c6003161c1760f81b9083908390811061014b5761014b610234565b60200101907effffffffffffffffffffffffffffffffffffffffffffffffffffffffffffff1916908160001a90535060010161010a565b5092611f4092509050565b604081526000835180604084015260005b818110156101bb576020818701810151606086840101520161019e565b506000606082850101526060601f19601f83011684010191505063ffffffff831660208301529392505050565b63ffffffff81811683821602808216919082811461021657634e487b7160e01b600052601160045260246000fd5b505092915050565b634e487b7160e01b600052604160045260246000fd5b634e487b7160e01b600052603260045260246000fdfea2646970667358221220f14a32b270062718ff771f0d051639d4ea73b89451c778aed4b15bab0d2fe07c64736f6c63430008130033",
        "t*(2-(uint(1&-int(t))>>11))*(5+(2&t>>14))>>(3&t>>8)|t>>2) unchecked"
      ],
      "transaction": {
        "type": "0x02",
        "from": "0x40861ed98c2f77112e27192148588091e278b922",
        "to": "0x4a55cbac33cff6149510d498e2b1d314678688e7",
        "gas": "0x9333c",
        "value": "0x8e1bc9bf04000",
        "data": "0x2b1ccc9a0000000000000000000000000000000000000000000000000000000000000040000000000000000000000000000000000000000000000000000000000000030000000000000000000000000000000000000000000000000000000000000002a0608060405234801561001057600080fd5b50610280806100206000396000f3fe608060405234801561001057600080fd5b506004361061004c5760003560e01c80632e6636521461005157806360b0d83314610073578063655d2c2714610089578063ce665dd814610092575b600080fd5b61005961009a565b60405163ffffffff90911681526020015b60405180910390f35b61007b6100aa565b60405161006a92919061018d565b610059611f4081565b610059600081565b6100a7611f40601e6101e8565b81565b60606000806100bc611f40601e6101e8565b63ffffffff1667ffffffffffffffff8111156100da576100da61021e565b6040519080825280601f01601f191660200182016040528015610104576020820181803683370190505b50905060005b6203a980811015610182578151600282811c600e84901c82166005018402909102600884901c6003161c1760f81b9083908390811061014b5761014b610234565b60200101907effffffffffffffffffffffffffffffffffffffffffffffffffffffffffffff1916908160001a90535060010161010a565b5092611f4092509050565b604081526000835180604084015260005b818110156101bb576020818701810151606086840101520161019e565b506000606082850101526060601f19601f83011684010191505063ffffffff831660208301529392505050565b63ffffffff81811683821602808216919082811461021657634e487b7160e01b600052601160045260246000fd5b505092915050565b634e487b7160e01b600052604160045260246000fd5b634e487b7160e01b600052603260045260246000fdfea2646970667358221220f14a32b270062718ff771f0d051639d4ea73b89451c778aed4b15bab0d2fe07c64736f6c634300081300330000000000000000000000000000000000000000000000000000000000000043742a28322d2875696e742831262d696e74287429293e3e313129292a28352b283226743e3e313429293e3e283326743e3e38297c743e3e322920756e636865636b65640000000000000000000000000000000000000000000000000000000000",
        "nonce": "0x15",
        "accessList": []
      },
      "additionalContracts": [
        {
          "transactionType": "CREATE2",
          "address": "0xd96b3EbeEb845a99C00E79786A240D39A85aD120",
          "initCode": "67363d3d37363d34f03d5260086018f3"
        },
        {
          "transactionType": "CREATE",
          "address": "0x63cc68fC4aE6D65Fa3bC0eCdf8B23a9ed1dcca46",
          "initCode": "608060405234801561001057600080fd5b50610280806100206000396000f3fe608060405234801561001057600080fd5b506004361061004c5760003560e01c80632e6636521461005157806360b0d83314610073578063655d2c2714610089578063ce665dd814610092575b600080fd5b61005961009a565b60405163ffffffff90911681526020015b60405180910390f35b61007b6100aa565b60405161006a92919061018d565b610059611f4081565b610059600081565b6100a7611f40601e6101e8565b81565b60606000806100bc611f40601e6101e8565b63ffffffff1667ffffffffffffffff8111156100da576100da61021e565b6040519080825280601f01601f191660200182016040528015610104576020820181803683370190505b50905060005b6203a980811015610182578151600282811c600e84901c82166005018402909102600884901c6003161c1760f81b9083908390811061014b5761014b610234565b60200101907effffffffffffffffffffffffffffffffffffffffffffffffffffffffffffff1916908160001a90535060010161010a565b5092611f4092509050565b604081526000835180604084015260005b818110156101bb576020818701810151606086840101520161019e565b506000606082850101526060601f19601f83011684010191505063ffffffff831660208301529392505050565b63ffffffff81811683821602808216919082811461021657634e487b7160e01b600052601160045260246000fd5b505092915050565b634e487b7160e01b600052604160045260246000fd5b634e487b7160e01b600052603260045260246000fdfea2646970667358221220f14a32b270062718ff771f0d051639d4ea73b89451c778aed4b15bab0d2fe07c64736f6c63430008130033"
        }
      ],
      "isFixedGasLimit": false
    }
  ],
  "receipts": [
    {
      "transactionHash": "0xc1ce840a690a2938f74be1d55aa82db25ebca8d7a20ad8d558de95ea7152fb4f",
      "transactionIndex": "0x1",
      "blockHash": "0x4fd1670a4d9850dae02bf9a79caaaf5ec9291b92e53b61c42370a837b007fe7c",
      "blockNumber": "0x19935d8",
      "from": "0x40861Ed98c2f77112E27192148588091E278b922",
      "to": "0x4a55CBAc33cfF6149510D498E2B1D314678688e7",
      "cumulativeGasUsed": "0x6e9ec",
      "gasUsed": "0x6e9ec",
      "contractAddress": null,
      "logs": [
        {
          "address": "0x4a55CBAc33cfF6149510D498E2B1D314678688e7",
          "topics": [
            "0xddf252ad1be2c89b69c2b068fc378daa952ba7f163c4a11628f55a4df523b3ef",
            "0x0000000000000000000000000000000000000000000000000000000000000000",
            "0x00000000000000000000000040861ed98c2f77112e27192148588091e278b922",
            "0x0000000000000000000000000000000000000000000000000000000000000007"
          ],
          "data": "0x",
          "blockHash": "0x4fd1670a4d9850dae02bf9a79caaaf5ec9291b92e53b61c42370a837b007fe7c",
          "blockNumber": "0x19935d8",
          "transactionHash": "0xc1ce840a690a2938f74be1d55aa82db25ebca8d7a20ad8d558de95ea7152fb4f",
          "transactionIndex": "0x1",
          "logIndex": "0x0",
          "removed": false
        }
      ],
      "status": "0x1",
      "logsBloom": "0x00000000000000000100000000000000000000000000000000000000000000000000000008000000000000000000000000001000000000000000000000000000000020000000000000000008000000000000000000000000000000000000000000000000020000000000000000000800000000000000000000000010000000000000000000000000000000000000000000000000000000000000000000000000000000000000000000000000000000000000000000000000040000000000000000000002000000000000000000000010000010000000000000000100000020000040000000000000000000000000000000000000000000000000000000000000",
      "type": "0x2",
      "effectiveGasPrice": "0x3b94af80"
    }
  ],
  "libraries": [],
  "pending": [],
  "returns": {},
  "timestamp": 1687174240,
  "chain": 421613,
  "multi": false,
  "commit": "4c641bb"
}